:100000000C949F000C94C7000C94C7000C94C7007C
:100010000C94C7000C94C7000C94C7000C94B41B3C
:100020000C94C7000C94C7000C94C7000C94511A90
:100030000C94C7000C94C7000C94C7000C94C70024
:100040000C946D020C94C7000C9498030C947203EA
:100050000C94C7000C94C7000C94C7000C94C70004
:100060000C94C7000C94C700711676167E16841681
:100070008616901696169A167C3C3E5E2B3D3F2FB8
:100080005B5D3B2C2A225C000708171827283738AD
:1000900047485758060916192629363946495659E8
:1000A000050A151A252A353A454A555A040B141BD8
:1000B000242B343B444B545B030C131C232C333C48
:1000C000434C535C020D121D222D323D424D525DB8
:1000D000010E111E212E313E414E515E000F101FA8
:1000E000202F303F404F505F0000000024002700C9
:1000F0002A0000000000250028002B00040404044E
:1001000004040404020202020202030303030303C1
:10011000010204081020408001020408102001029E
:10012000040810200000000800020100000304077A
:100130000000000000000000FF06890A0D1C1124C9
:100140001FBECFEFD8E0DEBFCDBF11E0A0E0B1E031
:10015000E0E5FFE302C005900D92AC35B107D9F799
:1001600026E0ACE5B1E001C01D92A731B207E1F78E
:1001700010E0CFE9D0E004C02197FE010E94011DEC
:10018000CC39D107C9F70E94B8170C94A61F0C945C
:100190000000CF92DF92EF92FF920F931F93CF93C5
:1001A000DF936C017A018B01C0E0D0E0CE15DF0552
:1001B00081F0D8016D918D01D601ED91FC910190F6
:1001C000F081E02DC6010995892B11F02196EECF23
:1001D0007E01C701DF91CF911F910F91FF90EF90AA
:1001E000DF90CF900895FC01538D448D252F30E092
:1001F000842F90E0821B930B541710F0CF96089534
:1002000001970895FC01918D828D981761F0828D80
:10021000DF01A80FB11D5D968C91928D9F5F9F733A
:10022000928F90E008958FEF9FEF0895FC01918DDC
:10023000828D981731F0828DE80FF11D858D90E049
:1002400008958FEF9FEF0895FC01918D228D892FE6
:1002500090E0805C9F4F821B91098F7399270895CE
:10026000FC01848DDF01A80FB11DA35ABF4F2C9153
:10027000848D90E001968F739927848FA689B78922
:100280002C93A089B1898C91837080648C93938D19
:10029000848D981306C00288F389E02D80818F7DBC
:1002A00080830895EF92FF920F931F93CF93DF9374
:1002B000EC0181E0888F9B8D8C8D981305C0E889B7
:1002C000F989808185FD26C0F62E0B8D10E00F5F29
:1002D0001F4F0F731127E02E8C8DE8120CC00FB644
:1002E00007FCFACFE889F989808185FFF5CFCE0137
:1002F0000E943001F1CF8B8DFE01E80FF11DE35A12
:10030000FF4FF0829FB7F8940B8FEA89FB898081B9
:1003100080620AC09FB7F894EE89FF896083E889FC
:10032000F98980818370806480839FBF81E090E041
:10033000DF91CF911F910F91FF90EF900895CF9390
:10034000DF93EC01888D8823C9F0EA89FB898081DD
:1003500085FD05C0A889B9898C9186FD0FC00FB6AF
:1003600007FCF5CF808185FFF2CFA889B9898C91F0
:1003700085FFEDCFCE010E943001E7CFDF91CF9115
:1003800008956115710579F0FB0101900020E9F7EE
:100390003197AF01461B570BDC01ED91FC910280B8
:1003A000F381E02D099480E090E008950E94A11F60
:1003B00090E0FC01EC5DFE4F2491FC01E05FFE4FFC
:1003C0003491FC01E450FF4FE491EE2309F43CC06A
:1003D000222339F1233091F038F42130A9F0223072
:1003E00001F584B58F7D12C0273091F02830A1F03F
:1003F0002430B9F4809180008F7D03C0809180000B
:100400008F77809380000DC084B58F7784BD09C03D
:100410008091B0008F7703C08091B0008F7D809372
:10042000B000F0E0EE0FFF1FEE50FF4FA591B4912A
:100430009FB7F894611104C08C913095382302C0A5
:10044000EC913E2B3C939FBF0895CF93DF9390E0B8
:10045000FC01E05FFE4F2491FC01E450FF4F8491CA
:10046000882361F190E0880F991FFC01E851FF4F4C
:10047000C591D491FC01EE50FF4FA591B49161114B
:1004800009C09FB7F8948881209582238883EC91D6
:100490002E230BC0623061F49FB7F8948881322F0D
:1004A000309583238883EC912E2B2C939FBF06C01D
:1004B0008FB7F894E8812E2B28838FBFDF91CF91DF
:1004C00008952FB7F8946091FE017091FF0180911B
:1004D0000002909101022FBF08951F920F920FB654
:1004E0000F9211242F933F938F939F93AF93BF93BA
:1004F0008091FE019091FF01A0910002B091010254
:100500003091FD0123E0230F2D3720F40196A11D2A
:10051000B11D05C026E8230F0296A11DB11D209331
:10052000FD018093FE019093FF01A0930002B09320
:1005300001028091F9019091FA01A091FB01B09123
:10054000FC010196A11DB11D8093F9019093FA0160
:10055000A093FB01B093FC01BF91AF919F918F914C
:100560003F912F910F900FBE0F901F9018958F9273
:100570009F92AF92BF92CF92DF92EF92FF920F9332
:100580001F93CF93DF93EC016A017B0100E010E041
:100590000C151D0561F10E946102688779878A87C1
:1005A0009B87E881F9810284F385E02DCE010995CE
:1005B00097FF17C00E94610288849984AA84BB8433
:1005C000DC01CB0188199909AA09BB098C809D809F
:1005D000AE80BF8088159905AA05BB0510F3680198
:1005E00006C0F70181937F010F5F1F4FD1CFC60176
:1005F000DF91CF911F910F91FF90EF90DF90CF90FF
:10060000BF90AF909F908F90089568E571E00C9433
:10061000C101AF92BF92CF92DF92EF92FF920F9300
:100620001F93CF93DF93CDB7DEB7A1970FB6F894A2
:10063000DEBF0FBECDBF5C01F42FE52FCB0121152E
:10064000310559F4D5018D919C91DC012D913C919E
:10065000642FC501F901099525C019A2223008F4BB
:100660002AE08E010F5D1F4FC22ED12CE12CF12C00
:100670006F2F7E2FA70196010E94DF1CF22FE32F20
:10068000CA01015011096A3014F4605D01C0695C4F
:10069000D8016C93232B242B252B51F7B801C501CE
:1006A0000E94C101A1960FB6F894DEBF0FBECDBF68
:1006B000DF91CF911F910F91FF90EF90DF90CF903E
:1006C000BF90AF9008959A01AB0160E070E00C9488
:1006D0000903DC01ED91FC910190F081E02D09947A
:1006E0000C94C1011F920F920FB60F9211242F93F9
:1006F0003F934F935F936F937F938F939F93AF93AA
:10070000BF93EF93FF938CE591E00E943001FF913E
:10071000EF91BF91AF919F918F917F916F915F9179
:100720004F913F912F910F900FBE0F901F901895F2
:100730001F920F920FB60F9211242F938F939F93B6
:10074000EF93FF93E0916C01F0916D018081E09156
:100750007201F091730182FD12C090818091750148
:100760008F5F8F7320917601821751F0E0917501B0
:10077000F0E0E45AFE4F958F8093750101C08081AF
:10078000FF91EF919F918F912F910F900FBE0F903E
:100790001F901895CF93CFB7F894809105028111DF
:1007A00027C0E6E0F1E08491EAE1F1E09491E82FDE
:1007B000F0E0EE0FFF1FE851FF4FA591B491EC91CF
:1007C000E92321F461E08AE00E94D80161E08AE037
:1007D0000E9425028CB580618CBD8CB580648CBD77
:1007E00061E08DE00E94250261E08BE00E9425021D
:1007F000809105028F5F80930502CFBFCF9108954E
:1008000080E090E008950895CF93DF931F92CDB7D5
:10081000DEB76983DC01ED91FC910280F381E02D6C
:1008200041E050E0BE016F5F7F4F09950F90DF916F
:10083000CF910895CF93DF93EC01898D9A8D009726
:1008400039F481E090E09B838A8380E090E00BC0E4
:10085000FC01138212820E94F90FE98DFA8D228128
:100860003381232B71F7DF91CF910895FC01818DA6
:10087000928D009711F00C949E0D0895CF93DF9305
:100880001F92CDB7DEB741E050E0BE016F5F7F4FF2
:100890000E94B90B019719F4898190E002C08FEF93
:1008A0009FEF0F90DF91CF910895FC01818D928D84
:1008B000009711F00C943E048FEF9FEF08950F9373
:1008C0001F93CF93DF93FC01818D928D0097B9F038
:1008D000EF010E943E048C010F3F8FEF180791F04B
:1008E000898D9A8DFC0142855385648575854150BB
:1008F0005109610971090E94070DC80105C080E016
:1009000090E002C08FEF9FEFDF91CF911F910F9189
:100910000895EF92FF920F931F93CF93DF93EC0113
:100920007B018A011B821A8288EE93E0A0E0B0E08E
:100930008C839D83AE83BF8380E291E0998388831B
:100940008DE190E00E94211D9A8F898F009779F0A8
:100950002DE1F701DC0101900D922A95E1F74CE0C1
:1009600050E0B801CE010C960E94581F188EDF91FE
:10097000CF911F910F91FF90EF900895FC0113828A
:10098000128288EE93E0A0E0B0E084839583A68392
:10099000B78380E291E091838083128E118E14865A
:1009A0000895FC01818D928D009729F00E94070D1A
:1009B00091E0811101C090E0892F0895DC015996E2
:1009C000ED91FC915A97309729F062857385848563
:1009D000958508956FEF7FEFCB010895DC0159965F
:1009E000ED91FC915A97309729F063897489858934
:1009F0009689089560E070E0CB010895CF92DF9270
:100A0000EF92FF92CF93DF93FC01218D328D232B48
:100A1000D9F0EC010E94EE046B017C01CE010E9432
:100A2000DE04A7019601261B370B480B590BDA0190
:100A3000C901811530E89307A105B10538F08FEFA2
:100A40009FE7A0E0B0E002C080E090E0DF91CF91AE
:100A5000FF90EF90DF90CF900895CF93DF93EC015C
:100A6000898D9A8D009741F00E94E50D898D9A8DB0
:100A70000E94B91D1A8E198EDF91CF910895DC0165
:100A80005996ED91FC915A97309721F081E095812C
:100A9000911101C080E008950F931F93CF93DF93CE
:100AA000EC018B0141E00E943D15811109C040E03D
:100AB000B801CE01DF91CF911F910F910C943D159C
:100AC00081E0DF91CF911F910F9108950F931F93B4
:100AD000CF93DF93EC01162F8FA5882321F0CE0151
:100AE0008A960E94E50D412F61E0CE010E947108B7
:100AF000882389F08E01045F1F4FBE01C8010E9448
:100B00004C05882341F0B801CE018A960E94680BFB
:100B100091E0811101C090E0892FDF91CF911F9169
:100B20000F910895FC01DB0112968D919C91139712
:100B30009383828384E391E09183808314968C91E4
:100B40001497848315968C911597858316964D91ED
:100B50005D916D917C91199746835783608771876A
:100B60001A964D915D916D917C911D9742875387A7
:100B7000648775871E964D915D916D917C9151971B
:100B800046875787608B718B52968C915297828BD8
:100B900053964D915D916D917C915697438B548BFB
:100BA000658B768B57964D915D916D917C915A979F
:100BB000478B508F618F728F5B968D919C915C9764
:100BC000948F838F08954F925F926F927F928F924E
:100BD0009F92AF92BF92CF92DF92EF92FF920F93CC
:100BE0001F93CF93DF93CDB7DEB7C754D1090FB6AC
:100BF000F894DEBF0FBECDBF5C014A01390119A2D6
:100C000018A284E391E09F8F8E8F1BA21C821B820F
:100C10009A8389831E82645F7F4F6E018EE1C80EC6
:100C2000D11CC6010E94680B74018E010F5F1F4F1B
:100C30005C2C4D2C6FE270E0C7010E944D1F0097A5
:100C400009F443C0F70120812F3271F4FFEFEF1A4E
:100C5000FF0A902F812F052D142D2C01C201502E3B
:100C6000412E092F182FE6CF8E198D3008F08CE019
:100C7000C82ED12CA601B701CE01CB960E94581FD9
:100C8000EBE3F0E0EC0FFD1FEC0DFD1D1082C80141
:100C90000E94E50D21E0AE01455C5F4F652D742D8E
:100CA000C8010E940D0F811109C0F5011382128243
:100CB00084E391E091838083158211C0EC0CFD1CCC
:100CC000852D942D0E94E50DC9CFE818F908F30190
:100CD000F182E082652D742DC5010E949205C50147
:100CE000C95BDF4F0FB6F894DEBF0FBECDBFDF91FB
:100CF000CF911F910F91FF90EF90DF90CF90BF9019
:100D0000AF909F908F907F906F905F904F900895DD
:100D1000DF92EF92FF920F931F93CF93DF93CDB7A4
:100D2000DEB7C955D1090FB6F894DEBF0FBECDBFEF
:100D30007C018A01D22E9E01285A3F4FCE01CB96CC
:100D40000E94E3056A968EAD9FAD6A97080F191F42
:100D5000F801808181110AC0BE01655C7F4FCE0120
:100D600001960E9492054EE251E033C019A218A2EA
:100D700084E391E09F8F8E8F1BA221968FAD2197E8
:100D8000811104C0C7010E94BE0429C02D2DA801F5
:100D9000BE01655C7F4FCE014E960E940D0F8823E9
:100DA00089F3CE01CB960E94E50D8D2D867086309D
:100DB00041F449A95AA96BA97CA9CE014E960E947B
:100DC000070DBE01625E7F4FCE0101960E94920523
:100DD000A801BE016F5F7F4FC7010E948904C70150
:100DE000C75ADF4F0FB6F894DEBF0FBECDBFDF91FD
:100DF000CF911F910F91FF90EF90DF900895E6E063
:100E0000F2E0158216821186138682E090E0A0E05F
:100E1000B0E084879587A687B78713A215A614A686
:100E200084E391E093A782A717A608959FB7F8944B
:100E30002091040280910202213019F48DBB9FBFE2
:100E400008958FBF08950F93FC0180E092E1AAE717
:100E5000B0E030E0481759076A077B0740F4B695C1
:100E6000A795979587953F5F3630A1F737E091E0DA
:100E70009327222311F020E501C020E70C70892F71
:100E80008695082B022B0083917091830F91089512
:100E900020910402222399F04FB7F8942091040284
:100EA000213059F42DB3209302023DB32091030267
:100EB000209523232DBB4FBF02C0409302028CBD5F
:100EC0009DBD08958EBD00000DB407FEFDCF8EB50B
:100ED00008958FEF0C94620761E0FC0184810E9409
:100EE000D80180914F02882339F010924F028091EF
:100EF000040281110C9416070895CF93DF93EC013F
:100F000080914F02811109C081E080934F0280914E
:100F10005002909151020E94480760E08C81DF915D
:100F2000CF910C94D801CF93DF93EC018E8188236D
:100F300089F08F8198859C012F5F3F4F38872F83E1
:100F40008230924018F40E946907F3CFCE010E94CC
:100F50006C071E82DF91CF9108950F93CF93DF939B
:100F600000D0CDB7DEB7673028F026E1FC0125833D
:100F700080E047C06230F9F058F46623A9F0613090
:100F800079F500E021E040E059E06DE370E02EC02B
:100F90006430F9F0B8F0653019F500E021E040E97F
:100FA00050ED63E070E022C000E021E040E458E74B
:100FB0006DE771E01BC000E021E040E854E86EE11D
:100FC00070E014C000E021E040E452E46FE070E023
:100FD0000DC000E021E040E251EA67E070E006C0A9
:100FE00000E021E048E458EE61E070E0CE010196B7
:100FF0000E94230789819A81909351028093500225
:1010000081E00F900F90DF91CF910F9108950F9392
:101010001F93CF93DF93EB010E9461028B010E942B
:1010200069078F3F49F00E946102601B710B6C17CA
:101030007D07A8F380E001C081E0DF91CF911F918F
:101040000F9108958F929F92AF92BF92FF920F934C
:101050001F93CF93DF93EC01F62E49015A010E94B2
:101060009307CE010E947D076CE271E0CE010E94E1
:1010700007088F2D80640E94620708E110E0D50107
:10108000C401002E04C0B695A795979587950A943C
:10109000D2F70E94620708501109083F8FEF180726
:1010A00071F7FF2029F088E0F81204C087E803C038
:1010B00085E901C08FEF0E94620710E00E94690776
:1010C0008A8787FF04C01F3F11F01F5FF7CFDF91B2
:1010D000CF911F910F91FF90BF90AF909F908F90F5
:1010E00008957F928F929F92AF92BF92CF92DF929C
:1010F000EF92FF920F931F93CF93DF9300D0CDB762
:10110000DEB77C01762EFC011386118616821582CD
:1011100044830E9461026B0161E0F70184810E94B7
:10112000250261E0F70184810E94D8010E94CA0370
:1011300000E021E040E950ED63E070E0CE0101966F
:101140000E94230789819A819093510280935002D3
:101150000E9448071AE08FEF0E9462071150D9F7EA
:101160008091040281110E941607C7010E947D0729
:1011700020E030E0A90160E0C7010E942208082FAA
:10118000F7018287813049F00E9461026C197D0964
:10119000613D774068F381E050C02AEA31E040E0E9
:1011A00050E068E0C7010E94220882FF03C0F701F7
:1011B00003870EC004E00E946907F701828701508F
:1011C000D1F78A3A11F082E039C082E0F7018387D3
:1011D000F7018385823021F0812C912C540105C0C8
:1011E000812C912CA12C80E4B82E20E030E0A901C4
:1011F00067E3C7010E942208A501940169E2C701C3
:101200000E942208F7018287882349F00E94610228
:101210006C197D09613D774040F388E00EC0F7010D
:1012200083858230F1F420E030E0A9016AE3C70150
:101230000E942208882339F086E0F7018583C701E0
:101240000E946C0716C00E946907807C803C19F4DC
:1012500083E0F70183870E9469070E9469070E9463
:101260006907C7010E946C07672DC7010E94AD077F
:10127000182F812F0F900F90DF91CF911F910F9119
:10128000FF90EF90DF90CF90BF90AF909F908F90A6
:101290007F9008950F931F93CF93DF93EC010E94EB
:1012A00061028B010E9469078A878F3F49F40E947F
:1012B0006102601B710B6D327140A0F38FE003C0BF
:1012C0008E3F39F08DE08D83CE010E946C0780E067
:1012D00001C081E0DF91CF911F910F910895CF92CE
:1012E000DF92EF92FF920F931F93CF93DF93EC0166
:1012F0006901C801820F931F8130924008F05CC0E1
:101300008E81882371F088819981AA81BB8184179D
:101310009507A607B70729F48F819885C816D906BF
:1013200010F5488359836A837B838B85833039F03A
:1013300089E0440F551F661F771F8A95D1F79A01E0
:10134000AB0161E1CE010E942208882319F083E0FD
:101350008D8332C0CE010E944A09882369F1188624
:101360001F8281E08E838F8198858C159D0540F4C6
:101370000E9469078F819885019698878F83F3CFA4
:101380006701E00EF11ECE14DF0431F00E94690700
:10139000F60181936F01F7CF8F819885080F191F90
:1013A00018870F838985882319F00115124048F0AA
:1013B000CE010E94930705C0CE010E946C0780E019
:1013C00001C081E0DF91CF911F910F91FF90EF90CD
:1013D000DF90CF900895EF92FF920F931F93011526
:1013E000110519F00E946F0901C081E01F910F9152
:1013F000FF90EF900895EF92FF920F931F93790162
:1014000000E012E020E030E00E946F091F910F9190
:10141000FF90EF900895EF92FF920F931F93CF9359
:10142000DF938C01862F7A010E946207E7018EEF1D
:10143000F81A89910E946207CE15DF05D1F78FEF68
:101440000E9462078FEF0E9462070E946907F801FD
:1014500082878F71853039F081E18583C8010E94D0
:101460006C0780E001C081E0DF91CF911F910F9167
:10147000FF90EF9008950F931F93CF93DF93EC01AC
:101480008901411551056105710511F482E132C0F0
:101490008B85833039F089E0440F551F661F771F15
:1014A0008A95D1F79A01AB0168E1CE010E9422082A
:1014B000882311F084E01EC0A8016EEFCE010E94C7
:1014C0000B0A8823C1F068E572E0CE010E9407088C
:1014D000811102C085E10EC020E030E0A9016DE07D
:1014E000CE010E942208811104C00E94690788234E
:1014F00039F084E18D83CE010E946C0780E004C046
:10150000CE010E946C0781E0DF91CF911F910F9176
:101510000895E0E5F2E080E5808311820895CF939D
:10152000DF93EC019C012A5F3F4F41E050E060E017
:1015300070E08B8D9C8D0E94D2138823A1F08F893F
:10154000988DA98DBA8D892B8A2B8B2B59F48E817E
:101550009F81A885B9858F8B988FA98FBA8F8C8131
:1015600080688C8381E0DF91CF910895CF92DF92E4
:10157000EF92FF921F93CF93DF93EC010E948F0AAB
:10158000811102C080E04AC0EB8DFC8DCE80DF80EF
:10159000E884F98482E0C81AD108E108F1080584DA
:1015A00004C0CC0CDD1CEE1CFF1C0A94D2F786850F
:1015B0009785A089B189C80ED91EEA1EFB1E148129
:1015C00081E0C81AD108E108F108112361F0C701D0
:1015D000B601610F711D811D911D0E94211288238A
:1015E00089F21150F2CFEB8DFC8D80E092E0A0E00B
:1015F000B0E0058404C0880F991FAA1FBB1F0A947E
:10160000D2F74B895C896D897E89840F951FA61F4F
:10161000B71F8B8B9C8BAD8BBE8B81E0DF91CF9105
:101620001F91FF90EF90DF90CF900895CF93DF93BD
:10163000EC01462F6E857F85888999890E94E61185
:10164000882341F08A8920E2829FC0011124855AB3
:101650009D4F02C080E090E0DF91CF910895FB01A3
:101660009B01255F3F4F40E24193E217F307E1F70B
:10167000DC0190E027E08D91882319F18E3229F466
:101680002A3021F198E02AE0F6CFE8E7F0E0349143
:10169000332321F031968313FACF18C02917B0F005
:1016A0003FED380F3E3590F431E0390FFB01E90F83
:1016B000F11D9FE9980F9A3108F480528083932F8F
:1016C000DACF81E0FB019081903209F480E0089547
:1016D0000F931F93CF93DF93FC012581222311F0F9
:1016E00080E042C08B01EC01FB0187898031B1F4BD
:1016F00082E08D831F8A188E198E1A8E808D918DAF
:10170000A0E0B0E025E0880F991FAA1FBB1F2A9513
:10171000D1F78B8B9C8BAD8BBE8B15C0803201F7C4
:1017200083E08D83FB01428D538D648D758D4F8BCE
:10173000588F698F7A8F9E012D5E3F4FC8010E949E
:10174000C812882369F21C8F0B8F81E08C831E8264
:101750001F82188619861A861B861C861D861E8681
:101760001F86188A198A1A8ADF91CF911F910F91CB
:1017700008952F923F924F925F926F927F928F9235
:101780009F92AF92BF92CF92DF92EF92FF920F9310
:101790001F93CF93DF93EC015B014A018D8181118F
:1017A00003C08FEF9FEFD7C08C8180FFFACF4B88AB
:1017B0005C886D887E884A855B856C857D85C401E3
:1017C000A0E0B0E093018201041B150B260B370B40
:1017D000081719072A073B0718F44201841A950ACB
:1017E00024011E0126E0220E311C4114510409F48B
:1017F0007EC04A855B856C857D856A0181E0D82243
:10180000ED818B8D9C8D8A019B01F9E036952795A2
:1018100017950795FA95D1F7E23061F4FC01828DB6
:10182000938DA48DB58DBC01CD01600F711F821FFA
:10183000931F3FC0FC0174807A947022C114D104BC
:10184000C9F4711017C0452B462B472B49F48F89DB
:10185000988DA98DBA8D8E839F83A887B9870AC07A
:101860004E815F816885798591010E9445128823A8
:1018700009F497CFEB8DFC8D8E819F81A885B9856A
:101880000297A109B109058404C0880F991FAA1FF6
:10189000BB1F0A94D2F74685578560897189840FEA
:1018A000951FA61FB71FBC01CD01670D711D811DBE
:1018B000911D20E032E02C193D0932012415350537
:1018C00008F439012C8126FD04C06114F2E07F0682
:1018D00079F50091060110910701209108013091DE
:1018E0000901601771078207930719F421C0C40129
:1018F00032C0750183019601AB01BC018091590290
:1019000090915A020E94EB09882309F44ACFA60C51
:10191000B71C8A859B85AC85BD85860D971DA11D4D
:10192000B11D8A879B87AC87BD87461857085DCF56
:1019300040E00E94E611882309F433CFF601E55A0E
:10194000FD4FD501CF01860D971D8E179F07F9F228
:1019500021912D93FACFDF91CF911F910F91FF909D
:10196000EF90DF90CF90BF90AF909F908F907F903F
:101970006F905F904F903F902F900895FF920F933C
:101980001F93CF93DF931F92CDB7DEB7FC01258164
:10199000223018F480E090E033C08C01FC014285D5
:1019A00053856485758585E0769567955795479548
:1019B0008A95D1F7F42FFF70FF2E41E050E0BE0171
:1019C0006F5F7F4FC8010E94B90B019719F489819D
:1019D00090E002C08FEF9FEF0196E1F2F80182855F
:1019E0009385A485B5854F96A11DB11D82879387E8
:1019F000A487B587F0E2FF9EC0011124855A9D4F50
:101A00000F90DF91CF911F910F91FF9008958F92CA
:101A10009F92AF92BF92CF92DF92EF92FF920F937D
:101A20001F93CF93DF93EC018D81811102C080E081
:101A300078C00B891C892D893E8904171507260754
:101A40003707A8F36A017B01823029F4CA86DB8656
:101A5000EC86FD860DC0C114D104E104F10451F4FB
:101A60001E821F82188619861A861B861C861D8672
:101A700081E057C08A849B84AC84BD84EB8DFC8D4F
:101A8000258530E0275F3F4FB501A4014150510942
:101A900061097109022E04C076956795579547959F
:101AA0000A94D2F7D701C6010197A109B10904C070
:101AB000B695A795979587952A95D2F78417950798
:101AC000A607B70720F089288A288B2871F44F8948
:101AD000588D698D7A8D4E835F83688779874C0135
:101AE0005D018E010A5F1F4F16C0841B950BA60B6C
:101AF000B70BF5CF4E815F816885798598018B8D15
:101B00009C8D0E94451291E0891A9108A108B108A4
:101B1000882309F48CCF81149104A104B10451F7F6
:101B200095CFDF91CF911F910F91FF90EF90DF90B4
:101B3000CF90BF90AF909F908F9008950F931F9379
:101B4000CF93DF93EC018D818823C9F18C8187FFCE
:101B500030C061E0CE010E94160B8C01892B79F117
:101B60008D81823048F48B899C89AD89BE89F801CA
:101B7000848F958FA68FB78F8F89988DA98DBA8DF9
:101B8000F801938F828FB58BA48BE0915202F09174
:101B90005302309759F0B8016A5E7F4FC8014896EA
:101BA0000995F801808D918D938B828B8C818F7735
:101BB0008C83DF91CF911F910F910C94AB1180E03A
:101BC000DF91CF911F910F910895CF93DF93EC0197
:101BD0000E949E0D882311F01D8281E0DF91CF913C
:101BE00008954F925F926F927F928F929F92AF92E1
:101BF000BF92EF92FF920F931F93CF93DF9300D08A
:101C000000D0CDB7DEB7FC0185818130E9F4848155
:101C100081FF1AC083899489A589B689841795079D
:101C2000A607B70788F0892B8A2B8B2B09F479C07C
:101C30004A015B017F014284538464847584CF012F
:101C40000E94070D811102C080E06CC0F701838DF6
:101C5000948D81149104A104B10471F44789508DCD
:101C6000618D728D0E94E714882371F3F701178A42
:101C7000108E118E128E3AC0F70146815781608511
:101C800071859E012F5F3F4F0E9445128823E1F22C
:101C900049815A816B817C81F701838D948DFC0190
:101CA0002789203129F008EF1FEF2FEF3FE004C014
:101CB00008EF1FEF20E030E040175107620773077D
:101CC000A8F40E94E714882309F4BECFF7014681E7
:101CD0005781608571850FEF1FEF2FEF3FE0838DF8
:101CE000948D0E943113882309F4AECFF701838AC3
:101CF000948AA58AB68A848180688483C7010E94F9
:101D00009E0D882309F4A0CFB501A40148145904FD
:101D10006A047B0410F4B301A201C7010E94070DFD
:101D200001C081E00F900F900F900F90DF91CF9145
:101D30001F910F91FF90EF90BF90AF909F908F9069
:101D40007F906F905F904F9008951F93CF93DF9394
:101D5000EC0180E2689FF0011124E55AFD4F938564
:101D6000917129F0842F827411F080E052C0142FF9
:101D70006A8B8091060190910701A0910801B091B2
:101D800009018E879F87A88BB98B4489558960E0AC
:101D900070E0BA0155274427828D938DA0E0B0E012
:101DA000482B592B6A2B7B2B4F8B588F698F7A8F3F
:101DB0008385887151F4848D958DA68DB78D8B8B1D
:101DC0009C8BAD8BBE8B81E00CC0803171F69E0187
:101DD0002D5E3F4F8B8D9C8D0E94C812882329F267
:101DE00084E08D83812F8F708C831E821F821886E2
:101DF00019861A861B861C861D8616FF09C040E0C0
:101E000050E0BA01CE01DF91CF911F910C94F10DFA
:101E100081E0DF91CF911F910895BF92CF92DF9221
:101E2000EF92FF920F931F93CF93DF93CDB7DEB75F
:101E30002B970FB6F894DEBF0FBECDBFFC013581E6
:101E40003111BFC0C22E8B017C01BE016F5F7F4F7D
:101E5000CA010E942F0B882309F4B3C0F801838DB7
:101E6000948DF701948F838FF80116821782108664
:101E700011861286138614861586D12CF801828568
:101E80009385A485B58543895489658976898417A6
:101E90009507A607B70708F03EC025E0B695A795B9
:101EA000979587952A95D1F7F82FFF70BF2EC80117
:101EB0000E94BE0C009709F484C0FC0120812223FB
:101EC000A1F0253E09F47FC04BE050E0BC01CE01FB
:101ED00001960E94401F892B89F68C2D80738033D8
:101EE00009F46FC04C2D6B2D68C0D11012C0F701E2
:101EF000B28A4091060150910701609108017091EA
:101F0000090146875787608B718BFC0180818111A5
:101F10005DC0DD24D3948C2D8271823109F051C0D3
:101F2000DD2041F061E0C7010E94160B8C01892B76
:101F300079F447C0F8018581823009F442C0C801B4
:101F40000E94B60A8823E9F1F701128A0BE512E034
:101F500080E2F80111928A95E9F78BE0FE01319653
:101F6000D80101900D928A95E1F7E0915202F0912B
:101F70005302309739F0B801625F7F4FC801409635
:101F8000099509C081E298E2F801918B808B80E08D
:101F900098E097878687F80180899189938B828B57
:101FA000918F808F86859785978B868B0E94AB114A
:101FB000882339F04C2DF7016289C7010E94A50ED4
:101FC00008C080E006C0DD2009F491CFDD24D39461
:101FD00055CF2B960FB6F894DEBF0FBECDBFDF9165
:101FE000CF911F910F91FF90EF90DF90CF90BF9016
:101FF00008952F923F924F925F926F927F928F92AD
:102000009F92AF92BF92CF92DF92EF92FF920F9387
:102010001F93CF93DF9300D000D0CDB7DEB78C01F4
:102020006B011A01DC0115968C9115978130C9F46A
:1020300014968C9181FF15C082FF1DC0F801438961
:1020400054896589768982859385A485B5858417A9
:102050009507A607B70779F0C8010E94070D8111FF
:102060000AC081E090E0D80113969C938E9312975A
:1020700080E090E048C1410183C05B968D919C91C6
:102080005C97FC0174802FEF270D2A013B0139E09A
:1020900076946794579447943A95D1F7722E7420AA
:1020A0007A01F1E0FF22772009F476C080E092E027
:1020B0008E199F0954018815990508F45C01D8010F
:1020C0005B962D913C915C9716968D919D910D900C
:1020D000BC91A02D0297A109B109F901058404C0A2
:1020E000880F991FAA1FBB1F0A94D2F746855785F0
:1020F00060897189840F951FA61FB71F9C01AD01D0
:10210000270D311D411D511D29013A01A11432E055
:10211000B30609F088C08091060190910701A09153
:102120000801B0910901481659066A067B0659F460
:102130008FEF9FEFDC018093060190930701A0933E
:102140000801B09309019601B301A20180915902DF
:1021500090915A020E943B0A882309F482CF9EEF95
:10216000D91A8A189B08F80182859385A485B585BC
:102170008A0D9B1DA11DB11D82879387A487B587FA
:10218000D8011A964D915D916D917C911D978114A6
:10219000910409F072CF87C0E114F10409F086CFF1
:1021A00016964D915D916D917C9119974115510550
:1021B0006105710559F457968D919D910D90BC91D3
:1021C000A02D0097A105B10541F521C09E012F5F0B
:1021D0003F4F0E944512882309F44BCF89819A8191
:1021E000AB81BC81F801238D348DF9012789203121
:1021F00029F048EF5FEF6FEF7FE004C048EF5FEF3B
:1022000060E070E084179507A607B70730F0C801B3
:102210000E948F0A81114ACF24CFF80186839783C9
:10222000A087B18743CFE114F10429F5D8011A96AC
:102230004D915D916D917C911D9753968D919D91DE
:102240000D90BC91A02D481759076A077B0798F09D
:102250000E94AB11882309F404CF409206015092EA
:102260000701609208017092090180915802816013
:102270008093580208C041E0C301B2010E94E611F8
:10228000882309F4EECED601F701E55AFD4F9F01F0
:102290002A0D3B1D2E173F0719F08D918193FACF20
:1022A000CA0CDB1C5ECFD8015396CD90DD90ED902B
:1022B000FC90569714968C91C416D506E606F70640
:1022C00040F4F801438B548B658B768B8068848354
:1022D0000DC02091520230915302232B39F021146A
:1022E000310421F08068D80114968C93F801848120
:1022F00083FD02C0C10107C0C8010E949E0D882352
:1023000009F4AFCEF7CF0F900F900F900F90DF91A1
:10231000CF911F910F91FF90EF90DF90CF90BF90E2
:10232000AF909F908F907F906F905F904F903F9075
:102330002F900895CF93DF931F92CDB7DEB76983B7
:1023400041E050E0BE016F5F7F4F0E94F90F0F9098
:10235000DF91CF910895809158028823A9F140918F
:1023600006015091070160910801709109012BE568
:1023700032E08091590290915A020E943B0A8111E9
:1023800002C080E00895409154025091550260913E
:10239000560270915702411551056105710591F082
:1023A0002BE532E08091590290915A020E943B0A3B
:1023B000882339F31092540210925502109256025B
:1023C000109257021092580281E00895CF92DF9246
:1023D000EF92FF92CF936B017C01C42F8091060195
:1023E00090910701A0910801B09109018C159D05FC
:1023F000AE05BF05D1F00E94AB11811102C080E093
:102400001AC02BE532E0B701A601809159029091E4
:102410005A020E94FB09882391F3C0920601D092D0
:102420000701E0920801F092090180915802C82B3F
:10243000C093580281E0CF91FF90EF90DF90CF9052
:102440000895CF92DF92EF92FF926B017C010E9480
:10245000AB118823A9F0EBE5F2E0119284E0EB35B3
:10246000F807D9F7C0920601D0920701E09208015F
:10247000F09209018091580281608093580281E0B6
:10248000FF90EF90DF90CF9008958F929F92AF9240
:10249000BF92CF92DF92EF92FF920F931F93CF9351
:1024A000DF93FC0181859285A385B4850196A11DEA
:1024B000B11D84179507A607B70710F480E05BC02D
:1024C00083889488A588B6888789803129F4BB27BA
:1024D000A72F962F852F09C0DB01CA01C7E0B6954B
:1024E000A79597958795CA95D1F7E9016A017B0170
:1024F0008F01BC01CD01680D791D8A1D9B1D809047
:10250000060190900701A0900801B090090168159C
:1025100079058A059B0591F4F80187898031A1F43A
:10252000DD24EE24FF24C601880F991FFC01E55A23
:10253000FD4F80819181A0E0B0E018C040E00E9492
:10254000E6118111E9CFBACFE894C7F8DD24EE2473
:10255000FF24C601880F991F880F991FFC01E55AB7
:10256000FD4F80819181A281B381BF70888399835F
:10257000AA83BB8381E0DF91CF911F910F91FF90E0
:10258000EF90DF90CF90BF90AF909F908F90089585
:102590004F925F926F927F92AF92BF92CF92DF92F3
:1025A000EF92FF920F931F93CF93DF9300D000D051
:1025B000CDB7DEB78C0149835A836B837C83590185
:1025C000C12CD12C7601412C82E0582E612C712C2B
:1025D00049815A816B817C819E012F5F3F4FC801E9
:1025E0000E944512882351F1D301C201F8010584EC
:1025F00004C0880F991FAA1FBB1F0A94D2F7C80EE8
:10260000D91EEA1EFB1E49815A816B817C81878914
:10261000803129F088EF9FEFAFEFBFE004C088EF73
:102620009FEFA0E0B0E0481759076A077B0780F2E8
:10263000F501C082D182E282F38281E00F900F9097
:102640000F900F90DF91CF911F910F91FF90EF901E
:10265000DF90CF90BF90AF907F906F905F904F9042
:1026600008954F925F926F927F928F929F92AF9256
:10267000BF92CF92DF92EF92FF920F931F93CF936F
:10268000DF93EC01423051056105710510F480E0E3
:1026900078C089859A85AB85BC850196A11DB11D41
:1026A00084179507A607B70790F3CB88DC88ED88D9
:1026B000FE888F89803129F4BB27A72F962F852F7D
:1026C00009C0DB01CA01E7E0B695A7959795879504
:1026D000EA95D1F7480159012A013B01C80ED91EDC
:1026E000EA1EFB1E8091060190910701A09108014E
:1026F000B0910901C816D906EA06FB0681F48F8954
:102700008031A9F4B301A201552766277727440F2A
:10271000551FFA01E55AFD4F9182808219C040E0B1
:10272000C701B6010E94E6118111E9CFB0CFB30114
:10273000A2014F77552766277727440F551F440F6F
:10274000551FFA01E55AFD4F80829182A282B38221
:10275000809158028160809358028A89823080F08B
:102760008D819E81AF81B885C80ED91EEA1EFB1EE1
:10277000C0925402D0925502E0925602F092570253
:1027800081E0DF91CF911F910F91FF90EF90DF904B
:10279000CF90BF90AF909F908F907F906F905F9001
:1027A0004F9008952F923F924F925F926F927F9237
:1027B0009F92AF92BF92CF92DF92EF92FF920F93D0
:1027C0001F93CF93DF93CDB7DEB760970FB6F89422
:1027D000DEBF0FBECDBF5C0149875A876B877C8700
:1027E0001901D901CD90DD90ED90FC90C114D10478
:1027F000E104F10431F0BFEFCB1ADB0AEB0AFB0A6C
:1028000010C0FC01C080D180E280F38099249394B1
:1028100009851A852B853C85013011052105310577
:1028200009F0912CF50181859285A385B4858C01F1
:102830009D010F5F1F4F2F4F3F4F0D871E872F8723
:10284000388B260137011D821E821F821886F501F2
:1028500081859285A385B4850D811E812F81388560
:10286000081719072A073B0708F056C02D853E8533
:102870004F855889241535054605570550F482E0E3
:10288000482E512C612C712C92E0C92ED12CE12CB8
:10289000F12C9E012F5F3F4FB301A201C5010E94A1
:1028A00045128823C9F149815A816B817C81D3010A
:1028B000C2010196A11DB11D452B462B472B19F0D6
:1028C0006C017D010FC0AC01BD014C195D096E09A1
:1028D0007F0909851A852B853C850417150726076E
:1028E000370779F02D813E814F8158852F5F3F4F0B
:1028F0004F4F5F4F2D833E834F8358872C013D01FF
:10290000A6CF0FEF1FEF2FEF3FE0B301A201C501EC
:102910000E943113811118C080E041C0D301C2016F
:102920000197A109B1098D839E83AF83B887930175
:102930008201AC01BD01C5010E943113882361F3FE
:102940004D805E806F807884C414D504E604F7045B
:1029500028F3D1014D915D916D917C914115510507
:102960006105710599F4F101C082D182E282F3829E
:102970009920A1F0FFEFCF1ADF0AEF0AFF0AD50175
:10298000CD92DD92ED92FC92139708C097018601DB
:10299000C5010E9431138111E6CFBECF81E0609660
:1029A0000FB6F894DEBF0FBECDBFDF91CF911F9160
:1029B0000F91FF90EF90DF90CF90BF90AF909F90DE
:1029C0007F906F905F904F903F902F900895AF92BF
:1029D000BF92CF92DF92EF92FF920F931F93CF930C
:1029E000DF9300D000D0CDB7DEB75C016A017B0178
:1029F00082E090E0A0E0B0E0F50180839183A283C3
:102A0000B3839E012F5F3F4FB701A601C5010E940E
:102A10004512882311F100E010E09801B701A601EA
:102A2000C5010E9431138823C1F0C980DA80EB8090
:102A3000FC80F5018789803129F088EF9FEFAFEFA7
:102A4000BFE004C088EF9FEFA0E0B0E0C816D90651
:102A5000EA06FB06B0F281E001C080E00F900F9023
:102A60000F900F90DF91CF911F910F91FF90EF90FA
:102A7000DF90CF90BF90AF9008958F929F92AF92CA
:102A8000BF92CF92DF92EF92FF920F931F93CF935B
:102A9000DF93EC01142F70935A0260935902442380
:102AA00069F1453010F080E0F2C040E060E070E095
:102AB000CB010E94E6118823B1F320E1129FA0010F
:102AC0001124455B5D4FFA01E254FE4F80818F7700
:102AD00051F73C9680819181A281B3818436910522
:102AE000A105B10500F33497C080D180E280F38066
:102AF000C114D104E104F10421F4D5CFC12CD12CAF
:102B0000760140E0C701B6010E94E611882359F220
:102B100080916602909167028115924021F6909112
:102B20006B02992309F4BFCF2091690230916A02A8
:102B3000232B09F4B8CF80916802882309F4B3CF1E
:102B40009A8B8C831D8690E041E050E02D85E22F2A
:102B5000BA01022E02C0660F771F0A94E2F78617A9
:102B6000970731F031E0320F3D87283078F39BCF63
:102B700020917102309172022115310519F040E067
:102B800050E008C020917F02309180024091810284
:102B9000509182022D833E834F8358878091690232
:102BA00090916A0246015701880E991EA11CB11C22
:102BB0008B8A9C8AAD8ABE8A00916C0210916D024C
:102BC000198F088FA0916B02B0E00E94071D860E3E
:102BD000971EA81EB91E8A8E9B8EAC8EBD8E85E078
:102BE000000F111F8A95E1F701501E4F012F112789
:102BF0000695800E911EA11CB11C8E869F86A88A08
:102C0000B98A20916E0230916F022115310521F0B1
:102C1000A90160E070E008C040917B0250917C0205
:102C200060917D0270917E02D701C60188199909D1
:102C3000AA09BB09840F951FA61FB71F04C0B6952C
:102C4000A79597958795EA95D2F789879A87AB8755
:102C5000BC87853F2FE09207A105B10510F48CE0F9
:102C600014C0853F9F4FA105B10510F480E10DC050
:102C70008091870290918802A0918902B0918A0286
:102C80008A8F9B8FAC8FBD8F80E28F8B81E0DF912D
:102C9000CF911F910F91FF90EF90DF90CF90BF9059
:102CA000AF909F908F90089580915C04813029F4BB
:102CB00080915B04815080935B0480915B0487FD6D
:102CC00003C081E0809380050895E0915C048E2F1D
:102CD00090E088309105C8F5FC01EC5CFF4F0C9446
:102CE000011D60E083E00E94D21A03C083E00E94CD
:102CF000EB1A60E084E00E94D21A23C060E083E017
:102D00000E94D21A60E007C060E00BC060E083E080
:102D10000E94D21A61E084E00E94D21A61E012C0DF
:102D200061E083E00E94D21A61E0E4CF83E00E9478
:102D3000EB1A04C060E083E00E94D21A84E00E9493
:102D4000EB1A60E085E00C94D21A0895CF93DF93DC
:102D5000EC01FB01828193819B838A83848195812D
:102D6000A681B7818C839D83AE83BF838085918547
:102D7000A285B38588879987AA87BB8780E291E07F
:102D8000998388838DE03C96DE011C9601900D921C
:102D90008A95E1F7FB01818D928D9A8F898FDF9162
:102DA000CF91089584B5826084BD84B5816084BD6F
:102DB00085B5826085BD85B5816085BDEEE6F0E0B4
:102DC00080818160808308953F924F925F926F92DD
:102DD0007F928F929F92AF92BF92CF92DF92EF92AB
:102DE000FF920F931F93CF93DF93CDB7DEB7E49796
:102DF0000FB6F894DEBF0FBECDBF8C0129013A019A
:102E00004B01C12CD12C7601C8010E94FE04892BF4
:102E100021F1C8010E945504898399270E94371F18
:102E2000892B91F7C414D504E604F704E1F05E01A0
:102E300082E0A80EB11C33243394C8010E94FE0422
:102E4000892B99F0C8010E945F040E94371F892BCB
:102E500061F4E1E33E1216C008C081E0C414D50459
:102E6000E604F704E1F180E03AC0C8010E94FE04E4
:102E7000892B81F0C8010E945F040E94371F892BB3
:102E800049F4F1CFC8010E945504F50181935F0117
:102E90003394D3CFAA24A394B12CAC0EBD1EA30CA3
:102EA000B11CF501108240E050E0BE016D5C7F4F27
:102EB000CE0101960E94421ECB012BA93CA92A15E6
:102EC0003B0589F68F3F910509F068F6F40161939F
:102ED0004F01FFEFCF1ADF0AEF0AFF0A95CFE49602
:102EE0000FB6F894DEBF0FBECDBFDF91CF911F911B
:102EF0000F91FF90EF90DF90CF90BF90AF909F9099
:102F00008F907F906F905F904F903F900895CF93F8
:102F1000DF93FB0122813381DC0113963C932E93D6
:102F20001297448155816681778114964D935D9304
:102F30006D937C93179740855185628573851896AC
:102F40004D935D936D937C931B971C96EF012C968C
:102F50009C01275E3F4F49914D93A217B307D9F7C4
:102F6000218D328DFC01328F218FDF91CF91089519
:102F7000CF93DF93CDB7DEB7C057D1090FB6F89422
:102F8000DEBF0FBECDBFCE018E5A9F4F0E94BE0442
:102F9000CE01C7960E94BE04CE014C960E94BE048C
:102FA000E1961CAE1DAE1EAE1FAEE19778940E9456
:102FB000F31A80E00E94561B81E080937F05809188
:102FC0007F058111FCCF80E090E00E94191B81E019
:102FD00080938005809180058111FCCF80915B04F6
:102FE0008F5F80935B040E94CE1A61E083E00E94B1
:102FF000D21A61E084E00E94D21A61E085E00E946A
:10300000D21A0E94F9190E94D21610925C046AE04A
:1030100086E092E00E946605811103C083E0809300
:103020005C0480915C04811137C021E04CE351E0E5
:1030300066E072E0CE0101960E948806BE016F5FD5
:103040007F4FCE018E5A9F4F0E948717CE018E5A16
:103050009F4F0E943F058823E1F0BE016E5A7F4FCB
:10306000CE0101960E94A61620E630E040E050E036
:103070006DEB74E0CE0101960E94E416811103C04D
:1030800085E080935C04CE018E5A9F4F0E942D05EF
:1030900003C084E080935C0480915C04882329F061
:1030A00080915C04811151C01CC0F8E8EF2EF0E063
:1030B000FF2E0DEB14E0F7018491F80161918F016F
:1030C0000E94731BFFEFEF1AFF0A85E00D3118070E
:1030D00091F781E080937F0580917F058111FCCF7E
:1030E000DFCF21E043E451E066E072E0CE010196DB
:1030F0000E948806BE016F5F7F4FCE01C7960E9477
:103100008717CE01C7960E943F058823D9F0BE01DC
:10311000695C7F4FCE0101960E94A61620E630E042
:1031200040E050E06DE574E0CE0101960E94E416A7
:10313000811103C085E080935C04CE01C7960E9494
:103140002D0503C084E080935C0480915C048111B0
:1031500019C021E04CE451E066E072E0CE01019636
:103160000E948806BE016F5F7F4FCE014C960E9481
:103170008717CE014C960E943F05811103C084E061
:1031800080935C0480915C04811135C0CE014C9623
:103190000E94EE04603271058105910520F485E0FE
:1031A00080935C0428C044E050E0BE016F5F7F4F15
:1031B000CE014C960E94B70244E050E0BE016B5F26
:1031C0007F4FCE014C960E94B70244E050E0BE0112
:1031D000675F7F4FCE014C960E94B70244E050E0FB
:1031E000BE01635F7F4FCE014C960E94B702198AE1
:1031F0001A8A1B8A1C8A80915C0481112DC08D81E2
:103200009E81AF81B88580369105A105B10519F081
:1032100085E080935C04CE014C960E94EE046B0125
:103220007C012D853E854F8558896D817E818F81FA
:1032300098850E94CF1CDC01CB014096A11DB11DD9
:10324000880F991FAA1FBB1FC816D906EA06FB06DE
:1032500019F085E080935C0469857A858B859C856F
:103260000E94691C0E943A1C69877A878B879C8719
:1032700080915C04811103C081E080935C040E9412
:103280002E1A80915C04813099F449855A856B85AA
:103290007C8584E596E10E94361A44EF51E060E0B7
:1032A00070E085E696E10E94361A10925B040AC02F
:1032B00044EF51E060E070E085E696E10E94361A46
:1032C0000E94031A40E250E060E070E0CE014C96AC
:1032D0000E94D104BB24B394AA24A3944DEBC42E22
:1032E00044E0D42E56E0952E67E0862E72E0772ECD
:1032F00080915C04813009F04EC080915B04181607
:10330000E4F3809180058111FCCF49895A896B894A
:103310007C898D859E85AF85B889481759076A07CE
:103320007B0719F470925C04E3CF38E8E32E30E0B9
:10333000F32E0DE514E042E050E0BE0163597F4FEB
:10334000CE014C960E94B702029719F080925C045D
:103350001CC0F7016490F801A1918F01B0E01196B3
:10336000E1962CAD3DAD4EAD5FADE1970E94071DDE
:10337000672F782F892F9927862D0E94311BFFEF09
:10338000EF1AFF0AC016D106B1F680915C048823BB
:1033900009F4AECF0FC0B11002C0B12CA9CF80E0AC
:1033A00090E00E94191BA0928005809180058111F8
:1033B000FCCFF3CF89899A89AB89BC890196A11D7D
:1033C000B11D898B9A8BAB8BBC8B9FB7F894809186
:1033D0005B0487FF08C090925C049FBFBB20E9F2AA
:1033E0000E94031ADACF80915B048F5F80935B04A5
:1033F000F4CF88E0809381008FE79EE3909389006B
:1034000080938800089510921F0510922005109255
:1034100021051092220580911D05882391F01092BC
:10342000230510922405109225051092260582305E
:1034300040F010922705109228051092290510924D
:103440002A0510928500109284008091810081608D
:103450008093810082E080936F000895E1E8F0E0BE
:103460008081887F808310926F000895A0911D0550
:103470002A2F30E0F901EE0FFF1FE55DFA4F91832F
:103480008083220F331F220F331FF901E15DFA4FB2
:10349000408351836283738351E05A0F50931D051B
:1034A00008951F920F920FB60F921124EF92FF9280
:1034B0001F932F933F934F935F936F937F938F93BC
:1034C0009F93AF93BF93CF93DF93EF93FF9380913D
:1034D0001F0590912005A0912105B091220501962C
:1034E000A11DB11D80931F0590932005A093210578
:1034F000B093220510E080911D051817C8F5812FA3
:1035000090E0EC01CC0FDD1FCC0FDD1FFE01ED5D67
:10351000FA4F4081518162817381452B462B472BA5
:1035200049F4880F991FFC01E55DFA4F0190F08185
:10353000E02D0995CE018D5D9A4F7C01FC018081C3
:103540009181A281B381BC01CD016F5F7F4F8F4F0D
:103550009F4FC15DDA4F288139814A815B810E948A
:10356000DF1CF70160837183828393831F5FC3CF66
:10357000FF91EF91DF91CF91BF91AF919F918F918B
:103580007F916F915F914F913F912F911F91FF908C
:10359000EF900F900FBE0F901F90189587B1886322
:1035A00087B9089548B121E030E0662349F0B901B8
:1035B00002C0660F771F8A95E2F7CB01842B09C002
:1035C000B90102C0660F771F8A95E2F7CB0180959B
:1035D000842388B9089521E030E001C0220F8A9544
:1035E000EAF726B90895209A549A529A219A539A42
:1035F000519A28985C985A9829985B98E4ECF0E0E6
:103600001182108280EC8093C20088E08093C10018
:103610001182108282E08093B00087E08093B10035
:1036200083E08093B300E0E7F0E0808182608083F4
:1036300008959C0194E0369527959A95E1F7322FED
:10364000982F8295807F22952F70282BE1E8F5E056
:10365000308321839283339686E0E131F807C1F706
:1036600008959FE5981B892F93E0899FF00111240D
:10367000F695E795DF01AF57BA4F80FD10C0CB013B
:1036800024E0969587952A95E1F78C93EE57FA4FAB
:1036900080818F706295607F682B608308958C9124
:1036A000807F872B8C9311966C930895282F220F7F
:1036B000220F922F990F990F392F330F330F482F65
:1036C00042954F70242B482F46954695942B832B7B
:1036D000E7E3F5E0208391838283339635E0EF378B
:1036E000F307C1F708952FE5281B33E0239FC0019E
:1036F000112496958795969587952370FC01E95C32
:10370000FA4F2130D9F0A8F0223049F59081907F0E
:10371000262F26952695922B90838F5FE82FF0E039
:10372000E95CFA4F80818F736295660F660F607C4B
:1037300018C080818370660F660F13C090819C7FD4
:10374000262F22952F70922B90838F5FE82FF0E029
:10375000E95CFA4F80818F706295607F02C0808142
:10376000807C682B608308951F920F920FB60F9292
:1037700011242F938F939F93EF93FF935B9A8091E4
:103780001E05882321F0299A299810921E055A9B1C
:1037900003C05A985C9A5C985B9880917F05882357
:1037A000D9F05A9A1092C6008091C00085FFFCCFD4
:1037B000E7E3F5E08FE795E021912093C6002091A3
:1037C000C00025FFFCCF8E179F07B1F781E08093E3
:1037D0001E0510927F0517C080918005882399F0FF
:1037E000E1E8F5E081E196E021912093C600209187
:1037F000C00025FFFCCF8E179F07B1F781E08093B3
:103800001E0510928005FF91EF919F918F912F914E
:103810000F900FBE0F901F901895ECE5F1E013820A
:10382000128288EE93E0A0E0B0E084839583A683C3
:10383000B7838EE091E09183808385EC90E095875B
:10384000848784EC90E09787868780EC90E0918B6A
:10385000808B81EC90E0938B828B82EC90E0958B57
:10386000848B86EC90E0978B868B118E128E138E54
:10387000148E08950E94AE1C88F09F5798F0B92FBF
:103880009927B751B0F0E1F0660F771F881F991F95
:103890001AF0BA95C9F714C0B13091F00E94C81C53
:1038A000B1E008950C94C81C672F782F8827B85F63
:1038B00039F0B93FCCF3869577956795B395D9F7ED
:1038C0003EF490958095709561957F4F8F4F9F4FF7
:1038D0000895E89409C097FB3EF490958095709503
:1038E00061957F4F8F4F9F4F9923A9F0F92F96E94C
:1038F000BB279395F695879577956795B795F111C1
:10390000F8CFFAF4BB0F11F460FF1BC06F5F7F4F5D
:103910008F4F9F4F16C0882311F096E911C077236F
:1039200021F09EE8872F762F05C0662371F096E878
:10393000862F70E060E02AF09A95660F771F881F47
:10394000DAF7880F9695879597F9089557FD90585F
:10395000440F551F59F05F3F71F04795880F97FB53
:10396000991F61F09F3F79F087950895121613060D
:103970001406551FF2CF4695F1DF08C0161617063C
:103980001806991FF1CF8695710561050894089571
:10399000E894BB2766277727CB0197F90895DB01C9
:1039A0008F939F930E94071DBF91AF91A29F800D9F
:1039B000911DA39F900DB29F900D11240895A1E237
:1039C0001A2EAA1BBB1BFD010DC0AA1FBB1FEE1F99
:1039D000FF1FA217B307E407F50720F0A21BB30BE4
:1039E000E40BF50B661F771F881F991F1A9469F760
:1039F00060957095809590959B01AC01BD01CF01BC
:103A00000895EE0FFF1F0590F491E02D09940E9498
:103A1000121DA59F900DB49F900DA49F800D911D28
:103A200011240895A29FB001B39FC001A39F700D00
:103A3000811D1124911DB29F700D811D1124911DB6
:103A400008950F931F93CF93DF938230910510F465
:103A500082E090E0E0911306F091140620E030E05F
:103A6000A0E0B0E0309719F14081518102811381CB
:103A700048175907C8F08417950769F4109731F073
:103A800012960C93129713961C9327C0009313065B
:103A90001093140622C02115310519F0421753075F
:103AA00018F49A01BD01EF01DF01F801DBCF211508
:103AB0003105F9F0281B390B2430310580F48A8157
:103AC0009B816115710521F0FB019383828304C002
:103AD0009093140680931306FE01329644C0FE01B3
:103AE000E20FF31F81939193225031093983288388
:103AF0003AC02091110630911206232B41F42091F7
:103B00000201309103013093120620931106209197
:103B10000001309101012115310541F42DB73EB767
:103B20004091040150910501241B350BE0911106D1
:103B3000F0911206E217F307A0F42E1B3F0B281793
:103B4000390778F0AC014E5F5F4F2417350748F016
:103B50004E0F5F1F5093120640931106819391936D
:103B600002C0E0E0F0E0CF01DF91CF911F910F9113
:103B70000895CF93DF93009709F481C0FC01329739
:103B800013821282A0911306B0911406109781F44B
:103B900020813181820F931F2091110630911206EE
:103BA0002817390751F5F0931206E093110667C004
:103BB000ED0120E030E0CE17DF0740F44A815B8161
:103BC0009E0141155105F1F0EA01F5CFD383C2837F
:103BD00040815181840F951FC817D90759F48881F6
:103BE0009981840F951F0296918380838A819B819E
:103BF000938382832115310529F4F0931406E09311
:103C000013063DC0E901FB83EA8349915991C40F32
:103C1000D51FEC17FD0761F480819181840F951FFA
:103C20000296E90199838883828193819B838A83A9
:103C3000E0E0F0E012968D919C911397009719F0B7
:103C4000FD01DC01F7CF8D919C9111979D012E5FB5
:103C50003F4F820F931F20911106309112062817B3
:103C6000390769F4309729F410921406109213065C
:103C700002C013821282B0931206A0931106DF9144
:103C8000CF910895A0E0B0E0E8E4FEE10C946B1F52
:103C90005C016B017A016115710519F0FB019183DB
:103CA0008083E114F10429F0C7010297839708F09B
:103CB000C9C0E5012196F5011081812F90E00E9495
:103CC000371F892B11F05E01F4CF1D3229F42196A4
:103CD000F501118101E007C01B3221F4E5012296B4
:103CE000F501118100E0E114F104B1F0F0E1EF160B
:103CF000F10429F4B0C010E3E114F10401F12AE069
:103D0000E216F104B1F180E1E816F10471F0E8E0A7
:103D1000EE16F104F1F413C0103341F588818F7D64
:103D2000883549F7198122960260F0E1EF2EF12CD7
:103D300088248A94982CA82CAFE0BA2E20C078E072
:103D4000E72EF12C88248A94982CA82CEFE1BE2E23
:103D500016C06FEF7FEFCB0197010F2C000C440BC7
:103D6000550B0E94DF1C49015A0109C08AE0E82E68
:103D7000F12C69E9862E982CA82C69E1B62E40E03A
:103D800060E070E0CB0127010F2C000C660877087B
:103D9000FE0150ED352E310E29E0231570F42FEB86
:103DA000210F2A3118F439EC332E06C02FE9210FE8
:103DB0002A3130F529EA322E310E232D30E02E152E
:103DC0003F05F4F44F3FC9F086169706A806B906DA
:103DD00088F0A30192010E94CF1C232D30E040E027
:103DE00050E0620F731F841F951F621773078407CB
:103DF000950710F44FEF01C041E021961081C8CF24
:103E0000C114D10451F0442311F0219703C001FFE4
:103E100004C02297F601D183C08300FF07C09095AC
:103E20008095709561957F4F8F4F9F4F4F3F79F4ED
:103E300082E290E090931606809315063FEF2FEFF5
:103E40009FEF0DC040E030E020E090E008C0462F3A
:103E5000372F282F04C0103309F067CF5FCF642FAE
:103E6000732F822FCDB7DEB7E1E10C94871F91113C
:103E70000C94671F803219F089508550C8F7089557
:103E8000FB01DC0104C08D910190801921F44150A7
:103E90005040C8F7881B990B0895FC018191861743
:103EA00021F08823D9F7992708953197CF010895F4
:103EB000FB01DC014150504048F001900D92002080
:103EC000C9F701C01D9241505040E0F7089599276D
:103ED000882708952F923F924F925F926F927F9220
:103EE0008F929F92AF92BF92CF92DF92EF92FF920A
:103EF0000F931F93CF93DF93CDB7DEB7CA1BDB0BB6
:103F00000FB6F894DEBF0FBECDBF09942A8839885A
:103F100048885F846E847D848C849B84AA84B98461
:103F2000C884DF80EE80FD800C811B81AA81B9816D
:103F3000CE0FD11D0FB6F894DEBF0FBECDBFED0181
:103F4000089581E090E0F8940C94A61FF894FFCFB8
:103F5000000017062000FFFFFFFF000000005201D5
:103F6000C900F3009F0124010201160100000000B6
:103F700004041A0400043604FE0455045F042F00F0
:103F8000000000009A11C9000004030464632E7449
:103F90007874006763616C2E7478740070726F6758
:0C3FA00072616D2E6C7066000D0A00004E
:00000001FF
